:1000260050415353574F52443A004F4B20004552CC
:100036005200456E6A6F79204D5553494321210080
:1000460020202020202020202020202020004D7548
:100056007369632074696D652121210016021402FB
:1000660011020F0611020D040F04110414061602E4
:10007600140211020F0611020F060D020F040D06DF
:100086001602140211020F0611020D040F041104C8
:1000960014061602140211020F0611020A120004B7
:1000A6000004FF19021B021D0420041E041D041B6C
:1000B6000419041D161402160219041B041D041843
:1000C6000419041404161619021B021D0420041E2A
:1000D600041D041B0419041D161402160219041B20
:1000E600041D04180419041404161A19022002190E
:1000F600022002190C190220021902200219041901
:1001060002200219022002190C19021B0219021DF3
:100116000219041902200219022002190C190220E0
:1001260002190220021904190220021902200219DA
:10013600082402200222021D0220021802190220AF
:100146000219022002190C190220021902200219B2
:10015600041902200219022002190C19021B0219A5
:10016600021D02190419021B0219021D02190C199B
:1001760002190219021903190419021B021902199C
:1001860003190CFF000400040004160218021906E5
:10019600180219041D04180C110211021606140285
:1001A60016041904140C110412061102120419047F
:1001B6001108000219021902190218061302130483
:1001C6001804180800041602180219061802190461
:1001D6001D04180C11021102160614021604190445
:1001E600140C0F02110212041902180419061B023C
:1001F6001B021D02190A1902180216021602180419
:100206001504160C19021B021D061B021D042004F0
:100216001B0C140214021906180219041D041D10E1
:1002260016021802190418041B021B021906140AE6
:100236001E041D041D0419041D0C1D04220820049F
:1002460020041D021B021908000219021B041902D0
:100256001B021B0420041D0C1D04220820081D027D
:100266001B021908000219021B0419021B061804B6
:05027600160C0004FF5E
:10075100204A0C0000F88CF8F3F95BF9B8FA15FAA5
:1007610067FAB9FB04FB4BFB90FBCFFC10FC44FC8C
:1007710079FCACFCDCFD09FD34FD5CFD82FDA6FDD0
:10078100C8FDE8FE06FE22FE3DFE56FE6EFE85FE1B
:0D0791009AFEAEFEC1FED3FEE4FEF4FF03AF
:10070300EF14B40800504490071875F003A4C58390
:1007130025F0C58373020730020734020738020746
:100723003C02074002074402074802074C7E0D8043
:100733001A7E0F80167E1180127E12800E7E148028
:0D0743000A7E1680067E1880027E19AF0621
:010750002286
:10027B00E4F55B1209577BFF7A0079267D017F013C
:10028B001208B112092A12090F12048C8F091207D6
:10029B00038F08E55B600302035DE509700302034E
:1002AB005DD394065037E55AC394045022AE57AF32
:1002BB00587C007D0A1206108E578F58E50975F091
:1002CB000A84E5F02558F558E43557F557055A7566
:1002DB006004AB58AA577D017F021208F2E509644E
:1002EB00077055E55864297004E557640970127B53
:1002FB00FF7A0079307D0E7F011208B1755B0180AA
:10030B00227BFF7A0079347D0E7F011208B1E4F570
:10031B0059B2A17F027E0012000E0559E559C39414
:10032B00FA40EEE4F557F558F55A756004AB58AA48
:10033B00577D017F021208F2E509B40815E4F55761
:10034B00F558F55A756004AB58AA577D017F021218
:10035B0008F2E55B64017042E509603EE4F5567B0B
:10036B00FF7A0079387D017F011208B17BFF7A009B
:10037B0079467D017F021208B1E509FB7A007560B1
:10038B00027D017F021208F2D28CAF091207038F94
:10039B000B7F7D7E0012000EC28CE55B6401704208
:1003AB00E5566401703C7BFF7A0079547D017F0236
:1003BB001208B1E50A90006293FFF460208F0B05E1
:1003CB000AE50A9375F07DA4FFAEF012000E050A44
:1003DB00C28C7F057E0012000ED28C8005C28CE48D
:1003EB00F50AE55B64017042E5566402703C7BFFE5
:1003FB007A0079547D017F021208B1E50A9000A9B9
:10040B0093FFF460208F0B050AE50A9375F07DA42A
:10041B00FFAEF012000E050AC28C7F057E001200A3
:10042B000ED28C8005C28CE4F50AE55B6401600397
:10043B00020294E556640360030202947BFF7A0088
:10044B0079547D017F021208B1E50A9000A993F45B
:10045B006027E50A90018A93F50B050AE50A937567
:10046B00F07DA4FFAEF012000E050AC28C7F057E54
:10047B000012000ED28C020294C28CE4F50A020226
:01048B0094DC
:03000B0002084A9E
:10084A00C0E0C0D075D000C000C006E50B25E0248A
:10085A000CF8E6FE08E64E6012E50B25E0240CF8DB
:10086A00E6FE08E6F58AEEF58CB2A1D006D000D0F5
:04087A00D0D0E032C8
:030023000205498A
:10054900C0E0C0F0C083C082C0D075D000C000C078
:1005590001C002C003C004C005C006C00730985FCF
:10056900E599B40103755601E599B402037556027C
:10057900E599B40303755603E599B40503750901B3
:10058900E599B40603750902E599B40703750903EA
:10059900E599B40803750904E599B40903750905D2
:1005A900E599B40A03750906E599B40B03750907BA
:1005B900E599B40C03750908AF99120003C298D0E4
:1005C90007D006D005D004D003D002D001D000D086
:0A05D900D0D082D083D0F0D0E03201
:10092A005389F0438901758A18758CFCC28DD28C63
:07093A00D2A9D2AFC2B9221D
:10090F0075985043878053890F438920758BFA75EB
:0B091F008DFAC2ABD28ED2AFD2AC2258
:080003008F993099FDC299228A
:10000E00EF1FAC0670011E4C600A7D027CEFDCFE19
:04001E00DDFC80EC99
:0100220022BB
:06096B00C2A58F80D2A797
:080971007F027EEFDEFEDFFCD9
:01097900225B
:0A097A00C2A612096BC2A7020971A0
:1008D400CFCDCFCECCCE1206227C007D0A120622CA
:0408E400ED2430FFD0
:0A08E800D2A612096BC2A702097123
:10094100AE07BE0104ED148006BE0209ED243F444A
:0609510080FF12097A226A
:100957007F3812097A7F0C12097A7F0612097A7F8B
:040967000102097A06
:0A098400AC03120941AF040208E8B9
:0608B1008B5C8A5D895E8C
:1008B700120941E4FDAB5CAA5DA95E8D82758300D8
:0C08C7001205E3FF60061208E80D80E94E
:0108D3002202
:0C087E007F0AEA24FFFDE434FFFC7E004A
:08088A008E618F628C638D64A6
:100892007F017E00E4FBEBC39564E5636480F8743A
:0E08A2008098500AAC61AD621206100B80E81F
:0108B0002225
:0408F2008A5E8B5F30
:1008F600120941AA60EAD39400400D12087EAC5E4C
:08090600AD5F1208D41A80ED68
:01090E0022C6
:10079F00120941C3EA64809480400B7F2B1208E852
:1007AF008A6A8B6B800E7F2D1208E8C3E49BF56B72
:1007BF00E49AF56AAA69EAD39400400D12087EAC58
:0907CF006AAD6B1208D41A80ED2A
:0107D80022FE
:0407D9008A6E8B6F2A
:1007DD00120941AA70EAD3940040297F10120880B3
:1007ED00AC6EAD6FCFCDCFCECCCE120622EF540F67
:1007FD00FEC3940AEE5004243080022437FF120801
:04080D00E81A80D194
:0108110022C4
:040812008A738B74E6
:10081600120941AA75EAD394004028EA24FFFDE4B0
:1008260034FFFC7F027E0012088AAC73AD74CFCD14
:10083600CFCECCCE120622EF54012430FF1208E8A8
:030846001A80D243
:01084900228C
:10048C00E4F55C2090137F14FE12000E3090FD7F7B
:10049C00147E0012000E755C012091147F147E00F6
:1004AC0012000E3091FD7F147E0012000E755C025E
:1004BC002092147F147E0012000E3092FD7F147E69
:1004CC000012000E755C032093147F147E00120042
:1004DC000E3093FD7F147E0012000E755C04209488
:1004EC00147F147E0012000E3094FD7F147E0012D7
:1004FC00000E755C052095147F147E0012000E30E2
:10050C0095FD7F147E0012000E755C062096147FFC
:10051C00147E0012000E3096FD7F147E0012000E29
:10052C00755C072097147F147E0012000E3097FD27
:0C053C007F147E0012000E755C08AF5C9E
:010548002290
:030000000206777E
:0C067700787FE4F6D8FD7581750206BEA0
:1005E300BB010CE58229F582E5833AF583E02250CD
:1005F30006E92582F8E622BBFE06E92582F8E22217
:0D060300E58229F582E5833AF583E4932230
:10061000EF8DF0A4A8F0CF8CF0A428CE8DF0A42EFE
:02062000FE22B8
:10062200BC000BBE0029EF8DF084FFADF022E4CCBC
:10063200F875F008EF2FFFEE33FEEC33FCEE9DEC85
:10064200984005FCEE9DFE0FD5F0E9E4CEFD22EDCB
:10065200F8F5F0EE8420D21CFEADF075F008EF2F15
:10066200FFED33FD4007985006D5F0F222C398FD06
:050672000FD5F0EA22A3
:1006830002027BE493A3F8E493A34003F68001F210
:1006930008DFF48029E493A3F85407240CC8C33378
:1006A300C4540F4420C8834004F456800146F6DF47
:1006B300E4800B0102040810204080900751E47E7F
:1006C300019360BCA3FF543F30E509541FFEE4933C
:1006D300A360010ECF54C025E060A840B8E493A303
:1006E300FAE493A3F8E493A3C8C582C8CAC583CA2E
:1006F300F0A3C8C582C8CAC583CADFE9DEE780BEE6
:01079E00005A
:00000001FF
